S01D0000456C656374726963205761746572204865617465722E7372656340
S11300000C942A000C9434000C9434000C943400A6
S11300100C9434000C9434000C9434000C9434008C
S11300200C9434000C9434000C9434000C9434007C
S11300300C9434000C9434000C9434000C9434006C
S11300400C9434000C9434000C9434000C9434005C
S11300500C94340011241FBECFE5D8E0DEBFCDBF21
S11300600E9484000C9403010C94000041E060E0C1
S113007080E00E948A0041E061E080E00E948A0002
S113008041E062E080E00E948A0041E063E080E0B9
S11300900E948A0041E064E080E00E948A0041E01E
S11300A065E080E00E948A0008958BB380628BBB78
S11300B008958BB380618BBB08958BB38F7D8BBB0D
S11300C008958BB38F7E8BBB0895CF939DEC899F4E
S11300D0912D1124C92FC695C695C695CC0F2C2FEA
S11300E0220F220FC20F8C1BC82F969596959695BA
S11300F09BBB0E9455000E945D00CBBB0E9459002F
S11301000E946100CF9108950E94360082E30E940C
S11301106500FCCF813019F130F08230E1F1833099
S113012009F455C00895442319F0413069F0089545
S11301302AB381E090E002C0880F991F6A95E2F724
S1130140809582238ABB08952AB381E090E002C09F
S1130150880F991F6A95E2F7822B8ABB089544237E
S113016019F0413069F0089527B381E090E002C0AE
S1130170880F991F6A95E2F78095822387BB0895BB
S113018027B381E090E002C0880F991F6A95E2F7D7
S1130190822B87BB0895442319F0413069F00895F8
S11301A024B381E090E002C0880F991F6A95E2F7BA
S11301B08095822384BB089524B381E090E002C03B
S11301C0880F991F6A95E2F7822B84BB0895442314
S11301D019F0413069F0089521B381E090E002C044
S11301E0880F991F6A95E2F78095822381BB089551
S11301F021B381E090E002C0880F991F6A95E2F76D
S10D0200822B81BB0895F894FFCF10
S9030000FC
